{
  "address": "0x4dBf92eb72DA21bc2fB9227707b78D9e36470451",
  "abi": [
    {
      "inputs": [
        {
          "internalType": "bool",
          "name": "_isBaseImplementation",
          "type": "bool"
        }
      ],
      "stateMutability": "nonpayable",
      "type": "constructor"
    },
    {
      "anonymous": false,
      "inputs": [
        {
          "indexed": true,
          "internalType": "address",
          "name": "owner",
          "type": "address"
        },
        {
          "indexed": true,
          "internalType": "address",
          "name": "approved",
          "type": "address"
        },
        {
          "indexed": true,
          "internalType": "uint256",
          "name": "tokenId",
          "type": "uint256"
        }
      ],
      "name": "Approval",
      "type": "event"
    },
    {
      "anonymous": false,
      "inputs": [
        {
          "indexed": true,
          "internalType": "address",
          "name": "owner",
          "type": "address"
        },
        {
          "indexed": true,
          "internalType": "address",
          "name": "operator",
          "type": "address"
        },
        {
          "indexed": false,
          "internalType": "bool",
          "name": "approved",
          "type": "bool"
        }
      ],
      "name": "ApprovalForAll",
      "type": "event"
    },
    {
      "anonymous": false,
      "inputs": [
        {
          "indexed": false,
          "internalType": "uint8",
          "name": "version",
          "type": "uint8"
        }
      ],
      "name": "Initialized",
      "type": "event"
    },
    {
      "anonymous": false,
      "inputs": [
        {
          "indexed": true,
          "internalType": "address",
          "name": "previousOwner",
          "type": "address"
        },
        {
          "indexed": true,
          "internalType": "address",
          "name": "newOwner",
          "type": "address"
        }
      ],
      "name": "OwnershipTransferred",
      "type": "event"
    },
    {
      "anonymous": false,
      "inputs": [
        {
          "indexed": false,
          "internalType": "address",
          "name": "account",
          "type": "address"
        }
      ],
      "name": "Paused",
      "type": "event"
    },
    {
      "anonymous": false,
      "inputs": [
        {
          "indexed": true,
          "internalType": "address",
          "name": "from",
          "type": "address"
        },
        {
          "indexed": true,
          "internalType": "address",
          "name": "to",
          "type": "address"
        },
        {
          "indexed": true,
          "internalType": "uint256",
          "name": "tokenId",
          "type": "uint256"
        }
      ],
      "name": "Transfer",
      "type": "event"
    },
    {
      "anonymous": false,
      "inputs": [
        {
          "indexed": false,
          "internalType": "address",
          "name": "account",
          "type": "address"
        }
      ],
      "name": "Unpaused",
      "type": "event"
    },
    {
      "inputs": [
        {
          "internalType": "address",
          "name": "to",
          "type": "address"
        },
        {
          "internalType": "uint256",
          "name": "tokenId",
          "type": "uint256"
        }
      ],
      "name": "approve",
      "outputs": [],
      "stateMutability": "nonpayable",
      "type": "function"
    },
    {
      "inputs": [
        {
          "internalType": "address",
          "name": "owner",
          "type": "address"
        }
      ],
      "name": "balanceOf",
      "outputs": [
        {
          "internalType": "uint256",
          "name": "",
          "type": "uint256"
        }
      ],
      "stateMutability": "view",
      "type": "function"
    },
    {
      "inputs": [
        {
          "internalType": "uint256",
          "name": "tokenId",
          "type": "uint256"
        }
      ],
      "name": "burn",
      "outputs": [],
      "stateMutability": "nonpayable",
      "type": "function"
    },
    {
      "inputs": [
        {
          "internalType": "uint256",
          "name": "tokenId",
          "type": "uint256"
        }
      ],
      "name": "getApproved",
      "outputs": [
        {
          "internalType": "address",
          "name": "",
          "type": "address"
        }
      ],
      "stateMutability": "view",
      "type": "function"
    },
    {
      "inputs": [
        {
          "internalType": "string",
          "name": "_contract_name",
          "type": "string"
        },
        {
          "internalType": "string",
          "name": "_symbol_name",
          "type": "string"
        },
        {
          "internalType": "uint256",
          "name": "_salePrice",
          "type": "uint256"
        },
        {
          "internalType": "uint256",
          "name": "_maxSupply",
          "type": "uint256"
        }
      ],
      "name": "initialize",
      "outputs": [],
      "stateMutability": "nonpayable",
      "type": "function"
    },
    {
      "inputs": [
        {
          "internalType": "address",
          "name": "owner",
          "type": "address"
        },
        {
          "internalType": "address",
          "name": "operator",
          "type": "address"
        }
      ],
      "name": "isApprovedForAll",
      "outputs": [
        {
          "internalType": "bool",
          "name": "",
          "type": "bool"
        }
      ],
      "stateMutability": "view",
      "type": "function"
    },
    {
      "inputs": [],
      "name": "maxSupply",
      "outputs": [
        {
          "internalType": "uint256",
          "name": "",
          "type": "uint256"
        }
      ],
      "stateMutability": "view",
      "type": "function"
    },
    {
      "inputs": [
        {
          "internalType": "address",
          "name": "_to",
          "type": "address"
        }
      ],
      "name": "mintNFT",
      "outputs": [],
      "stateMutability": "payable",
      "type": "function"
    },
    {
      "inputs": [],
      "name": "name",
      "outputs": [
        {
          "internalType": "string",
          "name": "",
          "type": "string"
        }
      ],
      "stateMutability": "view",
      "type": "function"
    },
    {
      "inputs": [],
      "name": "owner",
      "outputs": [
        {
          "internalType": "address",
          "name": "",
          "type": "address"
        }
      ],
      "stateMutability": "view",
      "type": "function"
    },
    {
      "inputs": [
        {
          "internalType": "uint256",
          "name": "tokenId",
          "type": "uint256"
        }
      ],
      "name": "ownerOf",
      "outputs": [
        {
          "internalType": "address",
          "name": "",
          "type": "address"
        }
      ],
      "stateMutability": "view",
      "type": "function"
    },
    {
      "inputs": [],
      "name": "pause",
      "outputs": [],
      "stateMutability": "nonpayable",
      "type": "function"
    },
    {
      "inputs": [],
      "name": "paused",
      "outputs": [
        {
          "internalType": "bool",
          "name": "",
          "type": "bool"
        }
      ],
      "stateMutability": "view",
      "type": "function"
    },
    {
      "inputs": [],
      "name": "renounceOwnership",
      "outputs": [],
      "stateMutability": "nonpayable",
      "type": "function"
    },
    {
      "inputs": [
        {
          "internalType": "address",
          "name": "from",
          "type": "address"
        },
        {
          "internalType": "address",
          "name": "to",
          "type": "address"
        },
        {
          "internalType": "uint256",
          "name": "tokenId",
          "type": "uint256"
        }
      ],
      "name": "safeTransferFrom",
      "outputs": [],
      "stateMutability": "nonpayable",
      "type": "function"
    },
    {
      "inputs": [
        {
          "internalType": "address",
          "name": "from",
          "type": "address"
        },
        {
          "internalType": "address",
          "name": "to",
          "type": "address"
        },
        {
          "internalType": "uint256",
          "name": "tokenId",
          "type": "uint256"
        },
        {
          "internalType": "bytes",
          "name": "data",
          "type": "bytes"
        }
      ],
      "name": "safeTransferFrom",
      "outputs": [],
      "stateMutability": "nonpayable",
      "type": "function"
    },
    {
      "inputs": [],
      "name": "salePrice",
      "outputs": [
        {
          "internalType": "uint256",
          "name": "",
          "type": "uint256"
        }
      ],
      "stateMutability": "view",
      "type": "function"
    },
    {
      "inputs": [
        {
          "internalType": "address",
          "name": "operator",
          "type": "address"
        },
        {
          "internalType": "bool",
          "name": "approved",
          "type": "bool"
        }
      ],
      "name": "setApprovalForAll",
      "outputs": [],
      "stateMutability": "nonpayable",
      "type": "function"
    },
    {
      "inputs": [
        {
          "internalType": "bytes4",
          "name": "interfaceId",
          "type": "bytes4"
        }
      ],
      "name": "supportsInterface",
      "outputs": [
        {
          "internalType": "bool",
          "name": "",
          "type": "bool"
        }
      ],
      "stateMutability": "view",
      "type": "function"
    },
    {
      "inputs": [],
      "name": "symbol",
      "outputs": [
        {
          "internalType": "string",
          "name": "",
          "type": "string"
        }
      ],
      "stateMutability": "view",
      "type": "function"
    },
    {
      "inputs": [
        {
          "internalType": "uint256",
          "name": "index",
          "type": "uint256"
        }
      ],
      "name": "tokenByIndex",
      "outputs": [
        {
          "internalType": "uint256",
          "name": "",
          "type": "uint256"
        }
      ],
      "stateMutability": "view",
      "type": "function"
    },
    {
      "inputs": [
        {
          "internalType": "address",
          "name": "owner",
          "type": "address"
        },
        {
          "internalType": "uint256",
          "name": "index",
          "type": "uint256"
        }
      ],
      "name": "tokenOfOwnerByIndex",
      "outputs": [
        {
          "internalType": "uint256",
          "name": "",
          "type": "uint256"
        }
      ],
      "stateMutability": "view",
      "type": "function"
    },
    {
      "inputs": [
        {
          "internalType": "uint256",
          "name": "tokenId",
          "type": "uint256"
        }
      ],
      "name": "tokenURI",
      "outputs": [
        {
          "internalType": "string",
          "name": "",
          "type": "string"
        }
      ],
      "stateMutability": "view",
      "type": "function"
    },
    {
      "inputs": [],
      "name": "totalSupply",
      "outputs": [
        {
          "internalType": "uint256",
          "name": "",
          "type": "uint256"
        }
      ],
      "stateMutability": "view",
      "type": "function"
    },
    {
      "inputs": [
        {
          "internalType": "address",
          "name": "from",
          "type": "address"
        },
        {
          "internalType": "address",
          "name": "to",
          "type": "address"
        },
        {
          "internalType": "uint256",
          "name": "tokenId",
          "type": "uint256"
        }
      ],
      "name": "transferFrom",
      "outputs": [],
      "stateMutability": "nonpayable",
      "type": "function"
    },
    {
      "inputs": [
        {
          "internalType": "address",
          "name": "newOwner",
          "type": "address"
        }
      ],
      "name": "transferOwnership",
      "outputs": [],
      "stateMutability": "nonpayable",
      "type": "function"
    },
    {
      "inputs": [],
      "name": "unpause",
      "outputs": [],
      "stateMutability": "nonpayable",
      "type": "function"
    }
  ],
  "transactionHash": "0x586b1bc75bf5dd1bf85a3f9790347498edbfc653f66f166c48363b2f5a60bd8b",
  "args": [
    true
  ],
  "numDeployments": 1,
  "solcInputHash": "74a106e3491e1641c91cea81c308bf12",
  "bytecode": "0x60806040523480156200001157600080fd5b506040516200244d3803806200244d83398101604081905262000034916200010e565b80156200004557620000456200004c565b5062000139565b600054610100900460ff1615620000b95760405162461bcd60e51b815260206004820152602760248201527f496e697469616c697a61626c653a20636f6e747261637420697320696e697469604482015266616c697a696e6760c81b606482015260840160405180910390fd5b60005460ff90811610156200010c576000805460ff191660ff9081179091556040519081527f7f26b83ff96e1f2b6a682f133852f6798a09c465da95921460cefb38474024989060200160405180910390a15b565b6000602082840312156200012157600080fd5b815180151581146200013257600080fd5b9392505050565b61230480620001496000396000f3fe60806040526004361061019c5760003560e01c80636352211e116100ec578063a22cb4651161008a578063d5abeb0111610064578063d5abeb011461046e578063e985e9c514610485578063f2fde38b146104ce578063f51f96dd146104ee57600080fd5b8063a22cb4651461040e578063b88d4fde1461042e578063c87b56dd1461044e57600080fd5b8063715018a6116100c6578063715018a6146103b15780638456cb59146103c65780638da5cb5b146103db57806395d89b41146103f957600080fd5b80636352211e146103515780636fe0e3951461037157806370a082311461039157600080fd5b80632f745c591161015957806342966c681161013357806342966c68146102e65780634f6ccce71461030657806354ba0f27146103265780635c975abb1461033957600080fd5b80632f745c59146102915780633f4ba83a146102b157806342842e0e146102c657600080fd5b806301ffc9a7146101a157806306fdde03146101d6578063081812fc146101f8578063095ea7b31461023057806318160ddd1461025257806323b872dd14610271575b600080fd5b3480156101ad57600080fd5b506101c16101bc366004611d41565b610505565b60405190151581526020015b60405180910390f35b3480156101e257600080fd5b506101eb610516565b6040516101cd9190611db6565b34801561020457600080fd5b50610218610213366004611dc9565b6105a8565b6040516001600160a01b0390911681526020016101cd565b34801561023c57600080fd5b5061025061024b366004611dfe565b6105cf565b005b34801561025e57600080fd5b506099545b6040519081526020016101cd565b34801561027d57600080fd5b5061025061028c366004611e28565b6106ea565b34801561029d57600080fd5b506102636102ac366004611dfe565b61071c565b3480156102bd57600080fd5b506102506107b2565b3480156102d257600080fd5b506102506102e1366004611e28565b6107c4565b3480156102f257600080fd5b50610250610301366004611dc9565b6107df565b34801561031257600080fd5b50610263610321366004611dc9565b610810565b610250610334366004611e64565b6108a3565b34801561034557600080fd5b5060c95460ff166101c1565b34801561035d57600080fd5b5061021861036c366004611dc9565b610952565b34801561037d57600080fd5b5061025061038c366004611f2b565b6109b2565b34801561039d57600080fd5b506102636103ac366004611e64565b610af5565b3480156103bd57600080fd5b50610250610b7b565b3480156103d257600080fd5b50610250610b8d565b3480156103e757600080fd5b5060fb546001600160a01b0316610218565b34801561040557600080fd5b506101eb610b9d565b34801561041a57600080fd5b50610250610429366004611f9f565b610bac565b34801561043a57600080fd5b50610250610449366004611fdb565b610bbb565b34801561045a57600080fd5b506101eb610469366004611dc9565b610bf3565b34801561047a57600080fd5b506102636101925481565b34801561049157600080fd5b506101c16104a0366004612057565b6001600160a01b039182166000908152606a6020908152604080832093909416825291909152205460ff1690565b3480156104da57600080fd5b506102506104e9366004611e64565b610c67565b3480156104fa57600080fd5b506102636101915481565b600061051082610cdd565b92915050565b6060606580546105259061208a565b80601f01602080910402602001604051908101604052809291908181526020018280546105519061208a565b801561059e5780601f106105735761010080835404028352916020019161059e565b820191906000526020600020905b81548152906001019060200180831161058157829003601f168201915b5050505050905090565b60006105b382610d02565b506000908152606960205260409020546001600160a01b031690565b60006105da82610952565b9050806001600160a01b0316836001600160a01b0316141561064d5760405162461bcd60e51b815260206004820152602160248201527f4552433732313a20617070726f76616c20746f2063757272656e74206f776e656044820152603960f91b60648201526084015b60405180910390fd5b336001600160a01b0382161480610669575061066981336104a0565b6106db5760405162461bcd60e51b815260206004820152603d60248201527f4552433732313a20617070726f76652063616c6c6572206973206e6f7420746f60448201527f6b656e206f776e6572206f7220617070726f76656420666f7220616c6c0000006064820152608401610644565b6106e58383610d61565b505050565b6106f5335b82610dcf565b6107115760405162461bcd60e51b8152600401610644906120c5565b6106e5838383610e4e565b600061072783610af5565b82106107895760405162461bcd60e51b815260206004820152602b60248201527f455243373231456e756d657261626c653a206f776e657220696e646578206f7560448201526a74206f6620626f756e647360a81b6064820152608401610644565b506001600160a01b03919091166000908152609760209081526040808320938352929052205490565b6107ba610fbf565b6107c2611019565b565b6106e583838360405180602001604052806000815250610bbb565b6107e8336106ef565b6108045760405162461bcd60e51b8152600401610644906120c5565b61080d8161106b565b50565b600061081b60995490565b821061087e5760405162461bcd60e51b815260206004820152602c60248201527f455243373231456e756d657261626c653a20676c6f62616c20696e646578206f60448201526b7574206f6620626f756e647360a01b6064820152608401610644565b6099828154811061089157610891612112565b90600052602060002001549050919050565b6108ab61110e565b6108b361116a565b6101915434146108f95760405162461bcd60e51b81526020600482015260116024820152704e6f7420636f72726563742076616c756560781b6044820152606401610644565b610192546099541061093e5760405162461bcd60e51b815260206004820152600e60248201526d4f766572206d6178537570706c7960901b6044820152606401610644565b610947816111b0565b61080d600161015f55565b6000818152606760205260408120546001600160a01b0316806105105760405162461bcd60e51b8152602060048201526018602482015277115490cdcc8c4e881a5b9d985b1a59081d1bdad95b88125160421b6044820152606401610644565b600054610100900460ff16158080156109d25750600054600160ff909116105b806109ec5750303b1580156109ec575060005460ff166001145b610a4f5760405162461bcd60e51b815260206004820152602e60248201527f496e697469616c697a61626c653a20636f6e747261637420697320616c72656160448201526d191e481a5b9a5d1a585b1a5e995960921b6064820152608401610644565b6000805460ff191660011790558015610a72576000805461ff0019166101001790555b610a7c85856111d7565b610191839055610192829055610a90611208565b610a9861122f565b610aa061125e565b610aa8611208565b8015610aee576000805461ff0019169055604051600181527f7f26b83ff96e1f2b6a682f133852f6798a09c465da95921460cefb38474024989060200160405180910390a15b5050505050565b60006001600160a01b038216610b5f5760405162461bcd60e51b815260206004820152602960248201527f4552433732313a2061646472657373207a65726f206973206e6f7420612076616044820152683634b21037bbb732b960b91b6064820152608401610644565b506001600160a01b031660009081526068602052604090205490565b610b83610fbf565b6107c2600061128d565b610b95610fbf565b6107c26112df565b6060606680546105259061208a565b610bb733838361131c565b5050565b610bc53383610dcf565b610be15760405162461bcd60e51b8152600401610644906120c5565b610bed848484846113eb565b50505050565b6060610bfe82610d02565b6000610c1560408051602081019091526000815290565b90506000815111610c355760405180602001604052806000815250610c60565b80610c3f8461141e565b604051602001610c50929190612128565b6040516020818303038152906040525b9392505050565b610c6f610fbf565b6001600160a01b038116610cd45760405162461bcd60e51b815260206004820152602660248201527f4f776e61626c653a206e6577206f776e657220697320746865207a65726f206160448201526564647265737360d01b6064820152608401610644565b61080d8161128d565b60006001600160e01b0319821663780e9d6360e01b14806105105750610510826114bb565b6000818152606760205260409020546001600160a01b031661080d5760405162461bcd60e51b8152602060048201526018602482015277115490cdcc8c4e881a5b9d985b1a59081d1bdad95b88125160421b6044820152606401610644565b600081815260696020526040902080546001600160a01b0319166001600160a01b0384169081179091558190610d9682610952565b6001600160a01b03167f8c5be1e5ebec7d5bd14f71427d1e84f3dd0314c0f7b2291e5b200ac8c7c3b92560405160405180910390a45050565b600080610ddb83610952565b9050806001600160a01b0316846001600160a01b03161480610e2257506001600160a01b038082166000908152606a602090815260408083209388168352929052205460ff165b80610e465750836001600160a01b0316610e3b846105a8565b6001600160a01b0316145b949350505050565b826001600160a01b0316610e6182610952565b6001600160a01b031614610e875760405162461bcd60e51b815260040161064490612157565b6001600160a01b038216610ee95760405162461bcd60e51b8152602060048201526024808201527f4552433732313a207472616e7366657220746f20746865207a65726f206164646044820152637265737360e01b6064820152608401610644565b610ef6838383600161150b565b826001600160a01b0316610f0982610952565b6001600160a01b031614610f2f5760405162461bcd60e51b815260040161064490612157565b600081815260696020908152604080832080546001600160a01b03199081169091556001600160a01b0387811680865260688552838620805460001901905590871680865283862080546001019055868652606790945282852080549092168417909155905184937fddf252ad1be2c89b69c2b068fc378daa952ba7f163c4a11628f55a4df523b3ef91a4505050565b60fb546001600160a01b031633146107c25760405162461bcd60e51b815260206004820181905260248201527f4f776e61626c653a2063616c6c6572206973206e6f7420746865206f776e65726044820152606401610644565b61102161151f565b60c9805460ff191690557f5db9ee0a495bf2e6ff9c91a7834c1ba4fdd244a5e8aa4e537bd38aeae4b073aa335b6040516001600160a01b03909116815260200160405180910390a1565b600061107682610952565b905061108681600084600161150b565b61108f82610952565b600083815260696020908152604080832080546001600160a01b03199081169091556001600160a01b0385168085526068845282852080546000190190558785526067909352818420805490911690555192935084927fddf252ad1be2c89b69c2b068fc378daa952ba7f163c4a11628f55a4df523b3ef908390a45050565b600261015f5414156111625760405162461bcd60e51b815260206004820152601f60248201527f5265656e7472616e637947756172643a207265656e7472616e742063616c6c006044820152606401610644565b600261015f55565b60c95460ff16156107c25760405162461bcd60e51b815260206004820152601060248201526f14185d5cd8589b194e881c185d5cd95960821b6044820152606401610644565b60006111bc6101935490565b90506111cd61019380546001019055565b610bb78282611568565b600054610100900460ff166111fe5760405162461bcd60e51b81526004016106449061219c565b610bb78282611582565b600054610100900460ff166107c25760405162461bcd60e51b81526004016106449061219c565b600054610100900460ff166112565760405162461bcd60e51b81526004016106449061219c565b6107c26115d0565b600054610100900460ff166112855760405162461bcd60e51b81526004016106449061219c565b6107c2611603565b60fb80546001600160a01b038381166001600160a01b0319831681179093556040519116919082907f8be0079c531659141344cd1fd0a4f28419497f9722a3daafe3b4186f6b6457e090600090a35050565b6112e761116a565b60c9805460ff191660011790557f62e78cea01bee320cd4e420270b5ea74000d11b0c9f74754ebdbfc544b05a25861104e3390565b816001600160a01b0316836001600160a01b0316141561137e5760405162461bcd60e51b815260206004820152601960248201527f4552433732313a20617070726f766520746f2063616c6c6572000000000000006044820152606401610644565b6001600160a01b038381166000818152606a6020908152604080832094871680845294825291829020805460ff191686151590811790915591519182527f17307eab39ab6107e8899845ad3d59bd9653f200f220920489ca2b5937696c31910160405180910390a3505050565b6113f6848484610e4e565b61140284848484611633565b610bed5760405162461bcd60e51b8152600401610644906121e7565b6060600061142b83611731565b600101905060008167ffffffffffffffff81111561144b5761144b611e7f565b6040519080825280601f01601f191660200182016040528015611475576020820181803683370190505b5090508181016020015b600019016f181899199a1a9b1b9c1cb0b131b232b360811b600a86061a8153600a85049450846114ae576114b3565b61147f565b509392505050565b60006001600160e01b031982166380ac58cd60e01b14806114ec57506001600160e01b03198216635b5e139f60e01b145b8061051057506301ffc9a760e01b6001600160e01b0319831614610510565b61151361116a565b610bed84848484611809565b60c95460ff166107c25760405162461bcd60e51b815260206004820152601460248201527314185d5cd8589b194e881b9bdd081c185d5cd95960621b6044820152606401610644565b610bb7828260405180602001604052806000815250611936565b600054610100900460ff166115a95760405162461bcd60e51b81526004016106449061219c565b81516115bc906065906020850190611c92565b5080516106e5906066906020840190611c92565b600054610100900460ff166115f75760405162461bcd60e51b81526004016106449061219c565b60c9805460ff19169055565b600054610100900460ff1661162a5760405162461bcd60e51b81526004016106449061219c565b6107c23361128d565b60006001600160a01b0384163b1561172657604051630a85bd0160e11b81526001600160a01b0385169063150b7a0290611677903390899088908890600401612239565b6020604051808303816000875af19250505080156116b2575060408051601f3d908101601f191682019092526116af91810190612276565b60015b61170c573d8080156116e0576040519150601f19603f3d011682016040523d82523d6000602084013e6116e5565b606091505b5080516117045760405162461bcd60e51b8152600401610644906121e7565b805181602001fd5b6001600160e01b031916630a85bd0160e11b149050610e46565b506001949350505050565b60008072184f03e93ff9f4daa797ed6e38ed64bf6a1f0160401b83106117705772184f03e93ff9f4daa797ed6e38ed64bf6a1f0160401b830492506040015b6d04ee2d6d415b85acef8100000000831061179c576d04ee2d6d415b85acef8100000000830492506020015b662386f26fc1000083106117ba57662386f26fc10000830492506010015b6305f5e10083106117d2576305f5e100830492506008015b61271083106117e657612710830492506004015b606483106117f8576064830492506002015b600a83106105105760010192915050565b60018111156118785760405162461bcd60e51b815260206004820152603560248201527f455243373231456e756d657261626c653a20636f6e7365637574697665207472604482015274185b9cd9995c9cc81b9bdd081cdd5c1c1bdc9d1959605a1b6064820152608401610644565b816001600160a01b0385166118d4576118cf81609980546000838152609a60205260408120829055600182018355919091527f72a152ddfb8e864297c917af52ea6c1c68aead0fee1a62673fcc7e0c94979d000155565b6118f7565b836001600160a01b0316856001600160a01b0316146118f7576118f78582611969565b6001600160a01b0384166119135761190e81611a06565b610aee565b846001600160a01b0316846001600160a01b031614610aee57610aee8482611ab5565b6119408383611af9565b61194d6000848484611633565b6106e55760405162461bcd60e51b8152600401610644906121e7565b6000600161197684610af5565b6119809190612293565b6000838152609860205260409020549091508082146119d3576001600160a01b03841660009081526097602090815260408083208584528252808320548484528184208190558352609890915290208190555b5060009182526098602090815260408084208490556001600160a01b039094168352609781528383209183525290812055565b609954600090611a1890600190612293565b6000838152609a602052604081205460998054939450909284908110611a4057611a40612112565b906000526020600020015490508060998381548110611a6157611a61612112565b6000918252602080832090910192909255828152609a90915260408082208490558582528120556099805480611a9957611a996122b8565b6001900381819060005260206000200160009055905550505050565b6000611ac083610af5565b6001600160a01b039093166000908152609760209081526040808320868452825280832085905593825260989052919091209190915550565b6001600160a01b038216611b4f5760405162461bcd60e51b815260206004820181905260248201527f4552433732313a206d696e7420746f20746865207a65726f20616464726573736044820152606401610644565b6000818152606760205260409020546001600160a01b031615611bb45760405162461bcd60e51b815260206004820152601c60248201527f4552433732313a20746f6b656e20616c7265616479206d696e746564000000006044820152606401610644565b611bc260008383600161150b565b6000818152606760205260409020546001600160a01b031615611c275760405162461bcd60e51b815260206004820152601c60248201527f4552433732313a20746f6b656e20616c7265616479206d696e746564000000006044820152606401610644565b6001600160a01b038216600081815260686020908152604080832080546001019055848352606790915280822080546001600160a01b0319168417905551839291907fddf252ad1be2c89b69c2b068fc378daa952ba7f163c4a11628f55a4df523b3ef908290a45050565b828054611c9e9061208a565b90600052602060002090601f016020900481019282611cc05760008555611d06565b82601f10611cd957805160ff1916838001178555611d06565b82800160010185558215611d06579182015b82811115611d06578251825591602001919060010190611ceb565b50611d12929150611d16565b5090565b5b80821115611d125760008155600101611d17565b6001600160e01b03198116811461080d57600080fd5b600060208284031215611d5357600080fd5b8135610c6081611d2b565b60005b83811015611d79578181015183820152602001611d61565b83811115610bed5750506000910152565b60008151808452611da2816020860160208601611d5e565b601f01601f19169290920160200192915050565b602081526000610c606020830184611d8a565b600060208284031215611ddb57600080fd5b5035919050565b80356001600160a01b0381168114611df957600080fd5b919050565b60008060408385031215611e1157600080fd5b611e1a83611de2565b946020939093013593505050565b600080600060608486031215611e3d57600080fd5b611e4684611de2565b9250611e5460208501611de2565b9150604084013590509250925092565b600060208284031215611e7657600080fd5b610c6082611de2565b634e487b7160e01b600052604160045260246000fd5b600067ffffffffffffffff80841115611eb057611eb0611e7f565b604051601f8501601f19908116603f01168101908282118183101715611ed857611ed8611e7f565b81604052809350858152868686011115611ef157600080fd5b858560208301376000602087830101525050509392505050565b600082601f830112611f1c57600080fd5b610c6083833560208501611e95565b60008060008060808587031215611f4157600080fd5b843567ffffffffffffffff80821115611f5957600080fd5b611f6588838901611f0b565b95506020870135915080821115611f7b57600080fd5b50611f8887828801611f0b565b949794965050505060408301359260600135919050565b60008060408385031215611fb257600080fd5b611fbb83611de2565b915060208301358015158114611fd057600080fd5b809150509250929050565b60008060008060808587031215611ff157600080fd5b611ffa85611de2565b935061200860208601611de2565b925060408501359150606085013567ffffffffffffffff81111561202b57600080fd5b8501601f8101871361203c57600080fd5b61204b87823560208401611e95565b91505092959194509250565b6000806040838503121561206a57600080fd5b61207383611de2565b915061208160208401611de2565b90509250929050565b600181811c9082168061209e57607f821691505b602082108114156120bf57634e487b7160e01b600052602260045260246000fd5b50919050565b6020808252602d908201527f4552433732313a2063616c6c6572206973206e6f7420746f6b656e206f776e6560408201526c1c881bdc88185c1c1c9bdd9959609a1b606082015260800190565b634e487b7160e01b600052603260045260246000fd5b6000835161213a818460208801611d5e565b83519083019061214e818360208801611d5e565b01949350505050565b60208082526025908201527f4552433732313a207472616e736665722066726f6d20696e636f72726563742060408201526437bbb732b960d91b606082015260800190565b6020808252602b908201527f496e697469616c697a61626c653a20636f6e7472616374206973206e6f74206960408201526a6e697469616c697a696e6760a81b606082015260800190565b60208082526032908201527f4552433732313a207472616e7366657220746f206e6f6e20455243373231526560408201527131b2b4bb32b91034b6b83632b6b2b73a32b960711b606082015260800190565b6001600160a01b038581168252841660208201526040810183905260806060820181905260009061226c90830184611d8a565b9695505050505050565b60006020828403121561228857600080fd5b8151610c6081611d2b565b6000828210156122b357634e487b7160e01b600052601160045260246000fd5b500390565b634e487b7160e01b600052603160045260246000fdfea2646970667358221220402d835c2b0ec793e8ab1b3d03b315850e554a101283a8aec899895d32cc92bd64736f6c634300080a0033",
  "devdoc": {
    "custom:security-contact": "Lidoxlee@gmail.com",
    "kind": "dev",
    "methods": {
      "approve(address,uint256)": {
        "details": "See {IERC721-approve}."
      },
      "balanceOf(address)": {
        "details": "See {IERC721-balanceOf}."
      },
      "burn(uint256)": {
        "details": "Burns `tokenId`. See {ERC721-_burn}. Requirements: - The caller must own `tokenId` or be an approved operator."
      },
      "constructor": {
        "custom:oz-upgrades-unsafe-allow": "constructor"
      },
      "getApproved(uint256)": {
        "details": "See {IERC721-getApproved}."
      },
      "isApprovedForAll(address,address)": {
        "details": "See {IERC721-isApprovedForAll}."
      },
      "mintNFT(address)": {
        "params": {
          "_to": ", address for receiving NFT"
        }
      },
      "name()": {
        "details": "See {IERC721Metadata-name}."
      },
      "owner()": {
        "details": "Returns the address of the current owner."
      },
      "ownerOf(uint256)": {
        "details": "See {IERC721-ownerOf}."
      },
      "paused()": {
        "details": "Returns true if the contract is paused, and false otherwise."
      },
      "renounceOwnership()": {
        "details": "Leaves the contract without owner. It will not be possible to call `onlyOwner` functions anymore. Can only be called by the current owner. NOTE: Renouncing ownership will leave the contract without an owner, thereby removing any functionality that is only available to the owner."
      },
      "safeTransferFrom(address,address,uint256)": {
        "details": "See {IERC721-safeTransferFrom}."
      },
      "safeTransferFrom(address,address,uint256,bytes)": {
        "details": "See {IERC721-safeTransferFrom}."
      },
      "setApprovalForAll(address,bool)": {
        "details": "See {IERC721-setApprovalForAll}."
      },
      "symbol()": {
        "details": "See {IERC721Metadata-symbol}."
      },
      "tokenByIndex(uint256)": {
        "details": "See {IERC721Enumerable-tokenByIndex}."
      },
      "tokenOfOwnerByIndex(address,uint256)": {
        "details": "See {IERC721Enumerable-tokenOfOwnerByIndex}."
      },
      "tokenURI(uint256)": {
        "details": "See {IERC721Metadata-tokenURI}."
      },
      "totalSupply()": {
        "details": "See {IERC721Enumerable-totalSupply}."
      },
      "transferFrom(address,address,uint256)": {
        "details": "See {IERC721-transferFrom}."
      },
      "transferOwnership(address)": {
        "details": "Transfers ownership of the contract to a new account (`newOwner`). Can only be called by the current owner."
      }
    },
    "version": 1
  },
  "userdoc": {
    "kind": "user",
    "methods": {
      "mintNFT(address)": {
        "notice": "mint NFT function."
      }
    },
    "version": 1
  },
  "storageLayout": {
    "storage": [
      {
        "astId": 138,
        "contract": "contracts/ERC721_Implementation.sol:NFTCollection",
        "label": "_initialized",
        "offset": 0,
        "slot": "0",
        "type": "t_uint8"
      },
      {
        "astId": 141,
        "contract": "contracts/ERC721_Implementation.sol:NFTCollection",
        "label": "_initializing",
        "offset": 1,
        "slot": "0",
        "type": "t_bool"
      },
      {
        "astId": 2393,
        "contract": "contracts/ERC721_Implementation.sol:NFTCollection",
        "label": "__gap",
        "offset": 0,
        "slot": "1",
        "type": "t_array(t_uint256)50_storage"
      },
      {
        "astId": 2686,
        "contract": "contracts/ERC721_Implementation.sol:NFTCollection",
        "label": "__gap",
        "offset": 0,
        "slot": "51",
        "type": "t_array(t_uint256)50_storage"
      },
      {
        "astId": 529,
        "contract": "contracts/ERC721_Implementation.sol:NFTCollection",
        "label": "_name",
        "offset": 0,
        "slot": "101",
        "type": "t_string_storage"
      },
      {
        "astId": 531,
        "contract": "contracts/ERC721_Implementation.sol:NFTCollection",
        "label": "_symbol",
        "offset": 0,
        "slot": "102",
        "type": "t_string_storage"
      },
      {
        "astId": 535,
        "contract": "contracts/ERC721_Implementation.sol:NFTCollection",
        "label": "_owners",
        "offset": 0,
        "slot": "103",
        "type": "t_mapping(t_uint256,t_address)"
      },
      {
        "astId": 539,
        "contract": "contracts/ERC721_Implementation.sol:NFTCollection",
        "label": "_balances",
        "offset": 0,
        "slot": "104",
        "type": "t_mapping(t_address,t_uint256)"
      },
      {
        "astId": 543,
        "contract": "contracts/ERC721_Implementation.sol:NFTCollection",
        "label": "_tokenApprovals",
        "offset": 0,
        "slot": "105",
        "type": "t_mapping(t_uint256,t_address)"
      },
      {
        "astId": 549,
        "contract": "contracts/ERC721_Implementation.sol:NFTCollection",
        "label": "_operatorApprovals",
        "offset": 0,
        "slot": "106",
        "type": "t_mapping(t_address,t_mapping(t_address,t_bool))"
      },
      {
        "astId": 1451,
        "contract": "contracts/ERC721_Implementation.sol:NFTCollection",
        "label": "__gap",
        "offset": 0,
        "slot": "107",
        "type": "t_array(t_uint256)44_storage"
      },
      {
        "astId": 1666,
        "contract": "contracts/ERC721_Implementation.sol:NFTCollection",
        "label": "_ownedTokens",
        "offset": 0,
        "slot": "151",
        "type": "t_mapping(t_address,t_mapping(t_uint256,t_uint256))"
      },
      {
        "astId": 1670,
        "contract": "contracts/ERC721_Implementation.sol:NFTCollection",
        "label": "_ownedTokensIndex",
        "offset": 0,
        "slot": "152",
        "type": "t_mapping(t_uint256,t_uint256)"
      },
      {
        "astId": 1673,
        "contract": "contracts/ERC721_Implementation.sol:NFTCollection",
        "label": "_allTokens",
        "offset": 0,
        "slot": "153",
        "type": "t_array(t_uint256)dyn_storage"
      },
      {
        "astId": 1677,
        "contract": "contracts/ERC721_Implementation.sol:NFTCollection",
        "label": "_allTokensIndex",
        "offset": 0,
        "slot": "154",
        "type": "t_mapping(t_uint256,t_uint256)"
      },
      {
        "astId": 2009,
        "contract": "contracts/ERC721_Implementation.sol:NFTCollection",
        "label": "__gap",
        "offset": 0,
        "slot": "155",
        "type": "t_array(t_uint256)46_storage"
      },
      {
        "astId": 321,
        "contract": "contracts/ERC721_Implementation.sol:NFTCollection",
        "label": "_paused",
        "offset": 0,
        "slot": "201",
        "type": "t_bool"
      },
      {
        "astId": 426,
        "contract": "contracts/ERC721_Implementation.sol:NFTCollection",
        "label": "__gap",
        "offset": 0,
        "slot": "202",
        "type": "t_array(t_uint256)49_storage"
      },
      {
        "astId": 10,
        "contract": "contracts/ERC721_Implementation.sol:NFTCollection",
        "label": "_owner",
        "offset": 0,
        "slot": "251",
        "type": "t_address"
      },
      {
        "astId": 130,
        "contract": "contracts/ERC721_Implementation.sol:NFTCollection",
        "label": "__gap",
        "offset": 0,
        "slot": "252",
        "type": "t_array(t_uint256)49_storage"
      },
      {
        "astId": 1635,
        "contract": "contracts/ERC721_Implementation.sol:NFTCollection",
        "label": "__gap",
        "offset": 0,
        "slot": "301",
        "type": "t_array(t_uint256)50_storage"
      },
      {
        "astId": 441,
        "contract": "contracts/ERC721_Implementation.sol:NFTCollection",
        "label": "_status",
        "offset": 0,
        "slot": "351",
        "type": "t_uint256"
      },
      {
        "astId": 499,
        "contract": "contracts/ERC721_Implementation.sol:NFTCollection",
        "label": "__gap",
        "offset": 0,
        "slot": "352",
        "type": "t_array(t_uint256)49_storage"
      },
      {
        "astId": 3675,
        "contract": "contracts/ERC721_Implementation.sol:NFTCollection",
        "label": "salePrice",
        "offset": 0,
        "slot": "401",
        "type": "t_uint256"
      },
      {
        "astId": 3677,
        "contract": "contracts/ERC721_Implementation.sol:NFTCollection",
        "label": "maxSupply",
        "offset": 0,
        "slot": "402",
        "type": "t_uint256"
      },
      {
        "astId": 3680,
        "contract": "contracts/ERC721_Implementation.sol:NFTCollection",
        "label": "_tokenIdCounter",
        "offset": 0,
        "slot": "403",
        "type": "t_struct(Counter)2400_storage"
      }
    ],
    "types": {
      "t_address": {
        "encoding": "inplace",
        "label": "address",
        "numberOfBytes": "20"
      },
      "t_array(t_uint256)44_storage": {
        "base": "t_uint256",
        "encoding": "inplace",
        "label": "uint256[44]",
        "numberOfBytes": "1408"
      },
      "t_array(t_uint256)46_storage": {
        "base": "t_uint256",
        "encoding": "inplace",
        "label": "uint256[46]",
        "numberOfBytes": "1472"
      },
      "t_array(t_uint256)49_storage": {
        "base": "t_uint256",
        "encoding": "inplace",
        "label": "uint256[49]",
        "numberOfBytes": "1568"
      },
      "t_array(t_uint256)50_storage": {
        "base": "t_uint256",
        "encoding": "inplace",
        "label": "uint256[50]",
        "numberOfBytes": "1600"
      },
      "t_array(t_uint256)dyn_storage": {
        "base": "t_uint256",
        "encoding": "dynamic_array",
        "label": "uint256[]",
        "numberOfBytes": "32"
      },
      "t_bool": {
        "encoding": "inplace",
        "label": "bool",
        "numberOfBytes": "1"
      },
      "t_mapping(t_address,t_bool)": {
        "encoding": "mapping",
        "key": "t_address",
        "label": "mapping(address => bool)",
        "numberOfBytes": "32",
        "value": "t_bool"
      },
      "t_mapping(t_address,t_mapping(t_address,t_bool))": {
        "encoding": "mapping",
        "key": "t_address",
        "label": "mapping(address => mapping(address => bool))",
        "numberOfBytes": "32",
        "value": "t_mapping(t_address,t_bool)"
      },
      "t_mapping(t_address,t_mapping(t_uint256,t_uint256))": {
        "encoding": "mapping",
        "key": "t_address",
        "label": "mapping(address => mapping(uint256 => uint256))",
        "numberOfBytes": "32",
        "value": "t_mapping(t_uint256,t_uint256)"
      },
      "t_mapping(t_address,t_uint256)": {
        "encoding": "mapping",
        "key": "t_address",
        "label": "mapping(address => uint256)",
        "numberOfBytes": "32",
        "value": "t_uint256"
      },
      "t_mapping(t_uint256,t_address)": {
        "encoding": "mapping",
        "key": "t_uint256",
        "label": "mapping(uint256 => address)",
        "numberOfBytes": "32",
        "value": "t_address"
      },
      "t_mapping(t_uint256,t_uint256)": {
        "encoding": "mapping",
        "key": "t_uint256",
        "label": "mapping(uint256 => uint256)",
        "numberOfBytes": "32",
        "value": "t_uint256"
      },
      "t_string_storage": {
        "encoding": "bytes",
        "label": "string",
        "numberOfBytes": "32"
      },
      "t_struct(Counter)2400_storage": {
        "encoding": "inplace",
        "label": "struct CountersUpgradeable.Counter",
        "members": [
          {
            "astId": 2399,
            "contract": "contracts/ERC721_Implementation.sol:NFTCollection",
            "label": "_value",
            "offset": 0,
            "slot": "0",
            "type": "t_uint256"
          }
        ],
        "numberOfBytes": "32"
      },
      "t_uint256": {
        "encoding": "inplace",
        "label": "uint256",
        "numberOfBytes": "32"
      },
      "t_uint8": {
        "encoding": "inplace",
        "label": "uint8",
        "numberOfBytes": "1"
      }
    }
  }
}